{
  "contractName": "Casino",
  "abi": [
    {
      "constant": false,
      "inputs": [],
      "name": "generateNumberWinner",
      "outputs": [],
      "payable": true,
      "stateMutability": "payable",
      "type": "function"
    },
    {
      "constant": true,
      "inputs": [],
      "name": "LIMIT_AMOUNT_BETS",
      "outputs": [
        {
          "name": "",
          "type": "uint256"
        }
      ],
      "payable": false,
      "stateMutability": "view",
      "type": "function"
    },
    {
      "constant": false,
      "inputs": [
        {
          "name": "myid",
          "type": "bytes32"
        },
        {
          "name": "result",
          "type": "string"
        }
      ],
      "name": "__callback",
      "outputs": [],
      "payable": false,
      "stateMutability": "nonpayable",
      "type": "function"
    },
    {
      "constant": true,
      "inputs": [],
      "name": "numberOfBets",
      "outputs": [
        {
          "name": "",
          "type": "uint256"
        }
      ],
      "payable": false,
      "stateMutability": "view",
      "type": "function"
    },
    {
      "constant": false,
      "inputs": [
        {
          "name": "_queryId",
          "type": "bytes32"
        },
        {
          "name": "_result",
          "type": "string"
        },
        {
          "name": "_proof",
          "type": "bytes"
        }
      ],
      "name": "__callback",
      "outputs": [],
      "payable": false,
      "stateMutability": "nonpayable",
      "type": "function"
    },
    {
      "constant": false,
      "inputs": [
        {
          "name": "player",
          "type": "address"
        }
      ],
      "name": "checkPlayerExists",
      "outputs": [
        {
          "name": "",
          "type": "bool"
        }
      ],
      "payable": false,
      "stateMutability": "nonpayable",
      "type": "function"
    },
    {
      "constant": false,
      "inputs": [
        {
          "name": "numberToBet",
          "type": "uint256"
        }
      ],
      "name": "bet",
      "outputs": [],
      "payable": true,
      "stateMutability": "payable",
      "type": "function"
    },
    {
      "constant": false,
      "inputs": [],
      "name": "distributePrizes",
      "outputs": [],
      "payable": false,
      "stateMutability": "nonpayable",
      "type": "function"
    },
    {
      "constant": true,
      "inputs": [],
      "name": "numberWinner",
      "outputs": [
        {
          "name": "",
          "type": "uint256"
        }
      ],
      "payable": false,
      "stateMutability": "view",
      "type": "function"
    },
    {
      "constant": true,
      "inputs": [],
      "name": "minimumBet",
      "outputs": [
        {
          "name": "",
          "type": "uint256"
        }
      ],
      "payable": false,
      "stateMutability": "view",
      "type": "function"
    },
    {
      "constant": true,
      "inputs": [],
      "name": "maxAmountOfBets",
      "outputs": [
        {
          "name": "",
          "type": "uint256"
        }
      ],
      "payable": false,
      "stateMutability": "view",
      "type": "function"
    },
    {
      "constant": true,
      "inputs": [
        {
          "name": "",
          "type": "uint256"
        }
      ],
      "name": "players",
      "outputs": [
        {
          "name": "",
          "type": "address"
        }
      ],
      "payable": false,
      "stateMutability": "view",
      "type": "function"
    },
    {
      "constant": true,
      "inputs": [],
      "name": "totalBet",
      "outputs": [
        {
          "name": "",
          "type": "uint256"
        }
      ],
      "payable": false,
      "stateMutability": "view",
      "type": "function"
    },
    {
      "inputs": [
        {
          "name": "_minimumBet",
          "type": "uint256"
        },
        {
          "name": "_maxAmountOfBets",
          "type": "uint256"
        }
      ],
      "payable": false,
      "stateMutability": "nonpayable",
      "type": "constructor"
    }
  ],
  "bytecode": "0x606060405267016345785d8a0000600655600a60095534156200002157600080fd5b604051604080620048a18339810160405280805190602001909190805190602001909190505033600560006101000a81548173ffffffffffffffffffffffffffffffffffffffff021916908373ffffffffffffffffffffffffffffffffffffffff16021790555060008211156200009a57816006819055505b600081118015620000ac575060648111155b15620000ba57806009819055505b620000fc60307f010000000000000000000000000000000000000000000000000000000000000002620001046401000000000262003a21176401000000009004565b505062000af2565b60008060009054906101000a900473ffffffffffffffffffffffffffffffffffffffff1673ffffffffffffffffffffffffffffffffffffffff1614806200018a57506000620001886000809054906101000a900473ffffffffffffffffffffffffffffffffffffffff166200048b640100000000026200295d176401000000009004565b145b15620001b257620001b06000620004966401000000000262002968176401000000009004565b505b6000809054906101000a900473ffffffffffffffffffffffffffffffffffffffff1673ffffffffffffffffffffffffffffffffffffffff166338cc48316000604051602001526040518163ffffffff167c0100000000000000000000000000000000000000000000000000000000028152600401602060405180830381600087803b15156200024057600080fd5b6102c65a03f115156200025257600080fd5b5050506040518051905073ffffffffffffffffffffffffffffffffffffffff16600160009054906101000a900473ffffffffffffffffffffffffffffffffffffffff1673ffffffffffffffffffffffffffffffffffffffff161415156200039e576000809054906101000a900473ffffffffffffffffffffffffffffffffffffffff1673ffffffffffffffffffffffffffffffffffffffff166338cc48316000604051602001526040518163ffffffff167c0100000000000000000000000000000000000000000000000000000000028152600401602060405180830381600087803b15156200034157600080fd5b6102c65a03f115156200035357600080fd5b50505060405180519050600160006101000a81548173ffffffffffffffffffffffffffffffffffffffff021916908373ffffffffffffffffffffffffffffffffffffffff1602179055505b600160009054906101000a900473ffffffffffffffffffffffffffffffffffffffff1673ffffffffffffffffffffffffffffffffffffffff1663688dcfd7826040518263ffffffff167c010000000000000000000000000000000000000000000000000000000002815260040180827effffffffffffffffffffffffffffffffffffffffffffffffffffffffffffff19167effffffffffffffffffffffffffffffffffffffffffffffffffffffffffffff19168152602001915050600060405180830381600087803b15156200047357600080fd5b6102c65a03f115156200048557600080fd5b50505050565b6000813b9050919050565b600080620004cc731d3b2638a7cc9f2cb3d298a3da7a90b67e5506ed6200048b640100000000026200295d176401000000009004565b11156200058557731d3b2638a7cc9f2cb3d298a3da7a90b67e5506ed6000806101000a81548173ffffffffffffffffffffffffffffffffffffffff021916908373ffffffffffffffffffffffffffffffffffffffff1602179055506200057b6040805190810160405280600b81526020017f6574685f6d61696e6e657400000000000000000000000000000000000000000081525062000a2764010000000002620033a1176401000000009004565b6001905062000a22565b6000620005ba73c03a2615d5efaf5f49f60b7bb6583eaec212fdf16200048b640100000000026200295d176401000000009004565b1115620006735773c03a2615d5efaf5f49f60b7bb6583eaec212fdf16000806101000a81548173ffffffffffffffffffffffffffffffffffffffff021916908373ffffffffffffffffffffffffffffffffffffffff160217905550620006696040805190810160405280600c81526020017f6574685f726f707374656e33000000000000000000000000000000000000000081525062000a2764010000000002620033a1176401000000009004565b6001905062000a22565b6000620006a873b7a07bcf2ba2f2703b24c0691b5278999c59ac7e6200048b640100000000026200295d176401000000009004565b1115620007615773b7a07bcf2ba2f2703b24c0691b5278999c59ac7e6000806101000a81548173ffffffffffffffffffffffffffffffffffffffff021916908373ffffffffffffffffffffffffffffffffffffffff160217905550620007576040805190810160405280600981526020017f6574685f6b6f76616e000000000000000000000000000000000000000000000081525062000a2764010000000002620033a1176401000000009004565b6001905062000a22565b60006200079673146500cfd35b22e4a392fe0adc06de1a1368ed486200048b640100000000026200295d176401000000009004565b11156200084f5773146500cfd35b22e4a392fe0adc06de1a1368ed486000806101000a81548173ffffffffffffffffffffffffffffffffffffffff021916908373ffffffffffffffffffffffffffffffffffffffff160217905550620008456040805190810160405280600b81526020017f6574685f72696e6b65627900000000000000000000000000000000000000000081525062000a2764010000000002620033a1176401000000009004565b6001905062000a22565b600062000884736f485c8bf6fc43ea212e93bbf8ce046c7f1cb4756200048b640100000000026200295d176401000000009004565b1115620008e957736f485c8bf6fc43ea212e93bbf8ce046c7f1cb4756000806101000a81548173ffffffffffffffffffffffffffffffffffffffff021916908373ffffffffffffffffffffffffffffffffffffffff1602179055506001905062000a22565b60006200091e7320e12a1f859b3feae5fb2a0a32c18f5a65555bbf6200048b640100000000026200295d176401000000009004565b111562000983577320e12a1f859b3feae5fb2a0a32c18f5a65555bbf6000806101000a81548173ffffffffffffffffffffffffffffffffffffffff021916908373ffffffffffffffffffffffffffffffffffffffff1602179055506001905062000a22565b6000620009b87351efaf4c8b3c9afbd5ab9f4bbc82784ab6ef8faa6200048b640100000000026200295d176401000000009004565b111562000a1d577351efaf4c8b3c9afbd5ab9f4bbc82784ab6ef8faa6000806101000a81548173ffffffffffffffffffffffffffffffffffffffff021916908373ffffffffffffffffffffffffffffffffffffffff1602179055506001905062000a22565b600090505b919050565b806002908051906020019062000a3f92919062000a43565b5050565b828054600181600116156101000203166002900490600052602060002090601f016020900481019282601f1062000a8657805160ff191683800117855562000ab7565b8280016001018555821562000ab7579182015b8281111562000ab657825182559160200191906001019062000a99565b5b50905062000ac6919062000aca565b5090565b62000aef91905b8082111562000aeb57600081600090555060010162000ad1565b5090565b90565b613d9f8062000b026000396000f3006060604052600436106100c5576000357c0100000000000000000000000000000000000000000000000000000000900463ffffffff1680630a50e361146100ca5780631900874b146100d457806327dc297e146100fd5780632ca8c6d31461016757806338bbfa50146101905780634081d9161461023d5780637365870b1461028e5780637ce52eb6146102a65780639a6a68e9146102bb578063c38a8afd146102e4578063e08a96cd1461030d578063f71d96cb14610336578063fe5e185314610399575b600080fd5b6100d26103c2565b005b34156100df57600080fd5b6100e76103f7565b6040518082815260200191505060405180910390f35b341561010857600080fd5b61016560048080356000191690602001909190803590602001908201803590602001908080601f016020809104026020016040519081016040528093929190818152602001838380828437820191505050505050919050506103fc565b005b341561017257600080fd5b61017a61042e565b6040518082815260200191505060405180910390f35b341561019b57600080fd5b61023b60048080356000191690602001909190803590602001908201803590602001908080601f0160208091040260200160405190810160405280939291908181526020018383808284378201915050505050509190803590602001908201803590602001908080601f01602080910402602001604051908101604052809392919081815260200183838082843782019150505050505091905050610434565b005b341561024857600080fd5b610274600480803573ffffffffffffffffffffffffffffffffffffffff16906020019091905050610731565b604051808215151515815260200191505060405180910390f35b6102a4600480803590602001909190505061078d565b005b34156102b157600080fd5b6102b96108ce565b005b34156102c657600080fd5b6102ce610a1a565b6040518082815260200191505060405180910390f35b34156102ef57600080fd5b6102f7610a20565b6040518082815260200191505060405180910390f35b341561031857600080fd5b610320610a26565b6040518082815260200191505060405180910390f35b341561034157600080fd5b6103576004808035906020019091905050610a2c565b604051808273ffffffffffffffffffffffffffffffffffffffff1673ffffffffffffffffffffffffffffffffffffffff16815260200191505060405180910390f35b34156103a457600080fd5b6103ac610a6b565b6040518082815260200191505060405180910390f35b6000806000806009546008541015156103f157600793506000925062030d4091506103ee838584610a71565b90505b50505050565b606481565b61042a828260006040518059106104105750595b9080825280601f01601f1916602001820160405250610434565b5050565b60085481565b82828260007f4c0000000000000000000000000000000000000000000000000000000000000082600081518110151561046957fe5b9060200101517f010000000000000000000000000000000000000000000000000000000000000090047f0100000000000000000000000000000000000000000000000000000000000000027effffffffffffffffffffffffffffffffffffffffffffffffffffffffffffff191614158061057e57507f500000000000000000000000000000000000000000000000000000000000000082600181518110151561050e57fe5b9060200101517f010000000000000000000000000000000000000000000000000000000000000090047f0100000000000000000000000000000000000000000000000000000000000000027effffffffffffffffffffffffffffffffffffffffffffffffffffffffffffff191614155b80610627575060017f0100000000000000000000000000000000000000000000000000000000000000028260028151811015156105b757fe5b9060200101517f010000000000000000000000000000000000000000000000000000000000000090047f0100000000000000000000000000000000000000000000000000000000000000027effffffffffffffffffffffffffffffffffffffffffffffffffffffffffffff191614155b1561063157600080fd5b61064482858561063f610e08565b610eb0565b905060001515811515141561065857600080fd5b6009546008541015156107285761066d611613565b73ffffffffffffffffffffffffffffffffffffffff163373ffffffffffffffffffffffffffffffffffffffff161415156106a357fe5b6001600a876040518082805190602001908083835b6020831015156106dd57805182526020820191506020810190506020830392506106b8565b6001836020036101000a03801982511681845116808217855250505050505090500191505060405180910390206001900481151561071757fe5b0601600a819055506107276108ce565b5b50505050505050565b600080600d60008473ffffffffffffffffffffffffffffffffffffffff1673ffffffffffffffffffffffffffffffffffffffff1681526020019081526020016000205411156107835760019050610788565b600090505b919050565b60095460085410151561079c57fe5b600015156107a933610731565b15151415156107b457fe5b600181101580156107c65750600a8111155b15156107ce57fe5b60065434101515156107dc57fe5b80600d60003373ffffffffffffffffffffffffffffffffffffffff1673ffffffffffffffffffffffffffffffffffffffff16815260200190815260200160002081905550600c6000828152602001908152602001600020805480600101828161084591906138a6565b9160005260206000209001600033909190916101000a81548173ffffffffffffffffffffffffffffffffffffffff021916908373ffffffffffffffffffffffffffffffffffffffff160217905550506001600860008282540192505081905550346007600082825401925050819055506009546008541015156108cb576108ca6103c2565b5b50565b6000806000600954600854101515610a1557600c6000600a5481526020019081526020016000208054905060075481151561090557fe5b049250600091505b600c6000600a548152602001908152602001600020805490508210156109c757600c6000600a5481526020019081526020016000208281548110151561094f57fe5b906000526020600020900160009054906101000a900473ffffffffffffffffffffffffffffffffffffffff1673ffffffffffffffffffffffffffffffffffffffff166108fc849081150290604051600060405180830381858888f1935050505015156109ba57600080fd5b818060010192505061090d565b600190505b600a81111515610a04576000600c6000838152602001908152602001600020816109f691906138d2565b5080806001019150506109cc565b600060078190555060006008819055505b505050565b600a5481565b60065481565b60095481565b600b81815481101515610a3b57fe5b90600052602060002090016000915054906101000a900473ffffffffffffffffffffffffffffffffffffffff1681565b60075481565b6000610a7b6138fe565b610a836138fe565b610a8b6138fe565b6000610a95613912565b600080891480610aa55750602089115b15610aaf57600080fd5b6001604051805910610abe5750595b9080825280601f01601f19166020018201604052509550887f010000000000000000000000000000000000000000000000000000000000000002866000815181101515610b0757fe5b9060200101907effffffffffffffffffffffffffffffffffffffffffffffffffffffffffffff1916908160001a9053506020604051805910610b465750595b9080825280601f01601f191660200182016040525094506020604051805910610b6c5750595b9080825280601f01601f19166020018201604052509350610b8b611929565b925060208552424118600143034018602086015260208452826020850152606060405190810160405280868152602001878152602001858152509150610c088a6040805190810160405280600681526020017f72616e646f6d0000000000000000000000000000000000000000000000000000815250848b611c3f565b9050610df8818b780100000000000000000000000000000000000000000000000002846001600381101515610c3957fe5b60200201516002866000600381101515610c4f57fe5b60200201516000604051602001526040518082805190602001908083835b602083101515610c925780518252602082019150602081019050602083039250610c6d565b6001836020036101000a03801982511681845116808217855250505050505090500191505060206040518083038160008661646e5a03f11515610cd457600080fd5b505060405180519050866002600381101515610cec57fe5b6020020151604051808577ffffffffffffffffffffffffffffffffffffffffffffffff191677ffffffffffffffffffffffffffffffffffffffffffffffff1916815260080184805190602001908083835b602083101515610d625780518252602082019150602081019050602083039250610d3d565b6001836020036101000a038019825116818451168082178552505050505050905001836000191660001916815260200182805190602001908083835b602083101515610dc35780518252602082019150602081019050602083039250610d9e565b6001836020036101000a0380198251168184511680821785525050505050509050019450505050506040518091039020611f9f565b8096505050505050509392505050565b610e10613940565b60028054600181600116156101000203166002900480601f016020809104026020016040519081016040528092919081815260200182805460018160011615610100020316600290048015610ea65780601f10610e7b57610100808354040283529160200191610ea6565b820191906000526020600020905b815481529060010190602001808311610e8957829003601f168201915b5050505050905090565b600080610ebb6138fe565b610ec36138fe565b610ecb6138fe565b610ed36138fe565b600080610ede6138fe565b602060028e6045815181101515610ef157fe5b9060200101517f010000000000000000000000000000000000000000000000000000000000000090047f0100000000000000000000000000000000000000000000000000000000000000027f01000000000000000000000000000000000000000000000000000000000000009004016044010197506020604051805910610f755750595b9080825280601f01601f19166020018201604052509650610f9b8d8960208a6000611fc7565b5060028a8d6000604051602001526040518083805190602001908083835b602083101515610fde5780518252602082019150602081019050602083039250610fb9565b6001836020036101000a03801982511681845116808217855250505050505090500182600019166000191681526020019250505060206040518083038160008661646e5a03f1151561102f57600080fd5b505060405180519050604051808260001916600019168152602001915050604051809103902060001916876040518082805190602001908083835b60208310151561108f578051825260208201915060208101905060208303925061106a565b6001836020036101000a0380198251168184511680821785525050505050509050019150506040518091039020600019161415156110d05760009850611603565b60028d600160498b01018151811015156110e657fe5b9060200101517f010000000000000000000000000000000000000000000000000000000000000090047f0100000000000000000000000000000000000000000000000000000000000000027f01000000000000000000000000000000000000000000000000000000000000009004016040518059106111625750595b9080825280601f01601f1916602001820160405250955061118b8d60498a018851896000611fc7565b506112a36002876000604051602001526040518082805190602001908083835b6020831015156111d057805182526020820191506020810190506020830392506111ab565b6001836020036101000a03801982511681845116808217855250505050505090500191505060206040518083038160008661646e5a03f1151561121257600080fd5b5050604051805190508c8f600860208d010181518110151561123057fe5b9060200101517f010000000000000000000000000000000000000000000000000000000000000090047f0100000000000000000000000000000000000000000000000000000000000000027f0100000000000000000000000000000000000000000000000000000000000000900461202b565b15156112b25760009850611603565b60296040518059106112c15750595b9080825280601f01601f191660200182016040525094506112ea8d60208a016029886000611fc7565b50604080518059106112f95750595b9080825280601f01601f1916602001820160405250935060418651602960208b0101010192506113318d604085036040876000611fc7565b506002846000604051602001526040518082805190602001908083835b602083101515611373578051825260208201915060208101905060208303925061134e565b6001836020036101000a03801982511681845116808217855250505050505090500191505060206040518083038160008661646e5a03f115156113b557600080fd5b505060405180519050915084826040518083805190602001908083835b6020831015156113f757805182526020820191506020810190506020830392506113d2565b6001836020036101000a038019825116818451168082178552505050505050905001826000191660001916815260200192505050604051809103902060001916600360008e600019166000191681526020019081526020016000205460001916141561148157600360008d600019166000191681526020019081526020016000206000905561148a565b60009850611603565b60496040518059106114995750595b9080825280601f01601f191660200182016040525090506114bf8d896049846000611fc7565b506115566002826000604051602001526040518082805190602001908083835b60208310151561150457805182526020820191506020810190506020830392506114df565b6001836020036101000a03801982511681845116808217855250505050505090500191505060206040518083038160008661646e5a03f1151561154657600080fd5b5050604051805190508786612134565b15156115655760009850611603565b6000151560046000846000191660001916815260200190815260200160002060009054906101000a900460ff16151514156115d7576115a48d8461244b565b60046000846000191660001916815260200190815260200160002060006101000a81548160ff0219169083151502179055505b60046000836000191660001916815260200190815260200160002060009054906101000a900460ff1698505b5050505050505050949350505050565b6000806000809054906101000a900473ffffffffffffffffffffffffffffffffffffffff1673ffffffffffffffffffffffffffffffffffffffff161480611683575060006116816000809054906101000a900473ffffffffffffffffffffffffffffffffffffffff1661295d565b145b15611694576116926000612968565b505b6000809054906101000a900473ffffffffffffffffffffffffffffffffffffffff1673ffffffffffffffffffffffffffffffffffffffff166338cc48316000604051602001526040518163ffffffff167c0100000000000000000000000000000000000000000000000000000000028152600401602060405180830381600087803b151561172157600080fd5b6102c65a03f1151561173257600080fd5b5050506040518051905073ffffffffffffffffffffffffffffffffffffffff16600160009054906101000a900473ffffffffffffffffffffffffffffffffffffffff1673ffffffffffffffffffffffffffffffffffffffff1614151561187b576000809054906101000a900473ffffffffffffffffffffffffffffffffffffffff1673ffffffffffffffffffffffffffffffffffffffff166338cc48316000604051602001526040518163ffffffff167c0100000000000000000000000000000000000000000000000000000000028152600401602060405180830381600087803b151561181f57600080fd5b6102c65a03f1151561183057600080fd5b50505060405180519050600160006101000a81548173ffffffffffffffffffffffffffffffffffffffff021916908373ffffffffffffffffffffffffffffffffffffffff1602179055505b600160009054906101000a900473ffffffffffffffffffffffffffffffffffffffff1673ffffffffffffffffffffffffffffffffffffffff1663c281d19e6000604051602001526040518163ffffffff167c0100000000000000000000000000000000000000000000000000000000028152600401602060405180830381600087803b151561190957600080fd5b6102c65a03f1151561191a57600080fd5b50505060405180519050905090565b6000806000809054906101000a900473ffffffffffffffffffffffffffffffffffffffff1673ffffffffffffffffffffffffffffffffffffffff161480611999575060006119976000809054906101000a900473ffffffffffffffffffffffffffffffffffffffff1661295d565b145b156119aa576119a86000612968565b505b6000809054906101000a900473ffffffffffffffffffffffffffffffffffffffff1673ffffffffffffffffffffffffffffffffffffffff166338cc48316000604051602001526040518163ffffffff167c0100000000000000000000000000000000000000000000000000000000028152600401602060405180830381600087803b1515611a3757600080fd5b6102c65a03f11515611a4857600080fd5b5050506040518051905073ffffffffffffffffffffffffffffffffffffffff16600160009054906101000a900473ffffffffffffffffffffffffffffffffffffffff1673ffffffffffffffffffffffffffffffffffffffff16141515611b91576000809054906101000a900473ffffffffffffffffffffffffffffffffffffffff1673ffffffffffffffffffffffffffffffffffffffff166338cc48316000604051602001526040518163ffffffff167c0100000000000000000000000000000000000000000000000000000000028152600401602060405180830381600087803b1515611b3557600080fd5b6102c65a03f11515611b4657600080fd5b50505060405180519050600160006101000a81548173ffffffffffffffffffffffffffffffffffffffff021916908373ffffffffffffffffffffffffffffffffffffffff1602179055505b600160009054906101000a900473ffffffffffffffffffffffffffffffffffffffff1673ffffffffffffffffffffffffffffffffffffffff1663abaa5f3e6000604051602001526040518163ffffffff167c0100000000000000000000000000000000000000000000000000000000028152600401602060405180830381600087803b1515611c1f57600080fd5b6102c65a03f11515611c3057600080fd5b50505060405180519050905090565b6000611c49613954565b60008060009054906101000a900473ffffffffffffffffffffffffffffffffffffffff1673ffffffffffffffffffffffffffffffffffffffff161480611cb857506000611cb66000809054906101000a900473ffffffffffffffffffffffffffffffffffffffff1661295d565b145b15611cc957611cc76000612968565b505b6000809054906101000a900473ffffffffffffffffffffffffffffffffffffffff1673ffffffffffffffffffffffffffffffffffffffff166338cc48316000604051602001526040518163ffffffff167c0100000000000000000000000000000000000000000000000000000000028152600401602060405180830381600087803b1515611d5657600080fd5b6102c65a03f11515611d6757600080fd5b5050506040518051905073ffffffffffffffffffffffffffffffffffffffff16600160009054906101000a900473ffffffffffffffffffffffffffffffffffffffff1673ffffffffffffffffffffffffffffffffffffffff16141515611eb0576000809054906101000a900473ffffffffffffffffffffffffffffffffffffffff1673ffffffffffffffffffffffffffffffffffffffff166338cc48316000604051602001526040518163ffffffff167c0100000000000000000000000000000000000000000000000000000000028152600401602060405180830381600087803b1515611e5457600080fd5b6102c65a03f11515611e6557600080fd5b50505060405180519050600160006101000a81548173ffffffffffffffffffffffffffffffffffffffff021916908373ffffffffffffffffffffffffffffffffffffffff1602179055505b6003604051805910611ebf5750595b908082528060200260200182016040528015611ef557816020015b611ee2613968565b815260200190600190039081611eda5790505b509050836000600381101515611f0757fe5b6020020151816000815181101515611f1b57fe5b90602001906020020181905250836001600381101515611f3757fe5b6020020151816001815181101515611f4b57fe5b90602001906020020181905250836002600381101515611f6757fe5b6020020151816002815181101515611f7b57fe5b90602001906020020181905250611f9486868386612df9565b915050949350505050565b8060036000846000191660001916815260200190815260200160002081600019169055505050565b611fcf6138fe565b600080600084870192508286511015611fe757600080fd5b8760200191508460200190505b86886020010182101561201c5781890151808288015250602082019150602081019050611ff4565b85935050505095945050505050565b600080600060019150600090505b8381101561212857848181518110151561204f57fe5b9060200101517f010000000000000000000000000000000000000000000000000000000000000090047f0100000000000000000000000000000000000000000000000000000000000000027effffffffffffffffffffffffffffffffffffffffffffffffffffffffffffff191686826020811015156120ca57fe5b1a7f0100000000000000000000000000000000000000000000000000000000000000027effffffffffffffffffffffffffffffffffffffffffffffffffffffffffffff191614151561211b57600091505b8080600101915050612039565b81925050509392505050565b60008060008060006121446138fe565b600061214e6138fe565b602060405180591061215d5750595b9080825280601f01601f1916602001820160405250925060208a600381518110151561218557fe5b9060200101517f010000000000000000000000000000000000000000000000000000000000000090047f0100000000000000000000000000000000000000000000000000000000000000027f010000000000000000000000000000000000000000000000000000000000000090040360040191506122088a836020866000611fc7565b925060206040518059106122195750595b9080825280601f01601f191660200182016040525090506022820191506122c88a60208c6001860381518110151561224d57fe5b9060200101517f010000000000000000000000000000000000000000000000000000000000000090047f0100000000000000000000000000000000000000000000000000000000000000027f010000000000000000000000000000000000000000000000000000000000000090040384016020846000611fc7565b905060208301519450602081015193506122e58b601b878761335d565b80975081985050508573ffffffffffffffffffffffffffffffffffffffff16896040518082805190602001908083835b60208310151561233a5780518252602082019150602081019050602083039250612315565b6001836020036101000a03801982511681845116808217855250505050505090500191505060405180910390206001900473ffffffffffffffffffffffffffffffffffffffff161415612390576001975061243d565b61239d8b601c878761335d565b80975081985050508573ffffffffffffffffffffffffffffffffffffffff16896040518082805190602001908083835b6020831015156123f257805182526020820191506020810190506020830392506123cd565b6001836020036101000a03801982511681845116808217855250505050505090500191505060405180910390206001900473ffffffffffffffffffffffffffffffffffffffff161497505b505050505050509392505050565b6000806124566138fe565b61245e6138fe565b6124666138fe565b61246e6138fe565b6124766138fe565b61247e6138fe565b6124866138fe565b60028b60018c0181518110151561249957fe5b9060200101517f010000000000000000000000000000000000000000000000000000000000000090047f0100000000000000000000000000000000000000000000000000000000000000027f01000000000000000000000000000000000000000000000000000000000000009004016040518059106125155750595b9080825280601f01601f1916602001820160405250965061253b8b8b89518a6000611fc7565b506040805180591061254a5750595b9080825280601f01601f191660200182016040525095506125718b60046040896000611fc7565b5060626040518059106125815750595b9080825280601f01601f1916602001820160405250945060017f0100000000000000000000000000000000000000000000000000000000000000028560008151811015156125cb57fe5b9060200101907effffffffffffffffffffffffffffffffffffffffffffffffffffffffffffff1916908160001a90535061260d8b60418c036041886001611fc7565b506040805190810160405280602081526020017ffd94fa71bc0ba10d39d464d0d8f465efeef0a2764e3887fcc9df41ded20f505c81525093506126568460006020886042611fc7565b506126ed6002866000604051602001526040518082805190602001908083835b60208310151561269b5780518252602082019150602081019050602083039250612676565b6001836020036101000a03801982511681845116808217855250505050505090500191505060206040518083038160008661646e5a03f115156126dd57600080fd5b5050604051805190508888612134565b9750600015158815151415612705576000985061294f565b606060405190810160405280604081526020017f7fb956469c5c9b89840d55b43537e66a98dd4811ea0a27224272c2e5622911e881526020017f537a2f8e86a46baec82864e98dd01e9ccc2f8bc5dfc9cbe5a91a290498dd96e4815250925060426040518059106127735750595b9080825280601f01601f1916602001820160405250915060fe7f0100000000000000000000000000000000000000000000000000000000000000028260008151811015156127bd57fe5b9060200101907effffffffffffffffffffffffffffffffffffffffffffffffffffffffffffff1916908160001a9053506127fd8b60036041856001611fc7565b5060028b604581518110151561280f57fe5b9060200101517f010000000000000000000000000000000000000000000000000000000000000090047f0100000000000000000000000000000000000000000000000000000000000000027f010000000000000000000000000000000000000000000000000000000000000090040160405180591061288b5750595b9080825280601f01601f191660200182016040525090506128b28b60448351846000611fc7565b506129496002836000604051602001526040518082805190602001908083835b6020831015156128f757805182526020820191506020810190506020830392506128d2565b6001836020036101000a03801982511681845116808217855250505050505090500191505060206040518083038160008661646e5a03f1151561293957600080fd5b5050604051805190508285612134565b97508798505b505050505050505092915050565b6000813b9050919050565b600080612988731d3b2638a7cc9f2cb3d298a3da7a90b67e5506ed61295d565b1115612a2957731d3b2638a7cc9f2cb3d298a3da7a90b67e5506ed6000806101000a81548173ffffffffffffffffffffffffffffffffffffffff021916908373ffffffffffffffffffffffffffffffffffffffff160217905550612a206040805190810160405280600b81526020017f6574685f6d61696e6e65740000000000000000000000000000000000000000008152506133a1565b60019050612df4565b6000612a4873c03a2615d5efaf5f49f60b7bb6583eaec212fdf161295d565b1115612ae95773c03a2615d5efaf5f49f60b7bb6583eaec212fdf16000806101000a81548173ffffffffffffffffffffffffffffffffffffffff021916908373ffffffffffffffffffffffffffffffffffffffff160217905550612ae06040805190810160405280600c81526020017f6574685f726f707374656e3300000000000000000000000000000000000000008152506133a1565b60019050612df4565b6000612b0873b7a07bcf2ba2f2703b24c0691b5278999c59ac7e61295d565b1115612ba95773b7a07bcf2ba2f2703b24c0691b5278999c59ac7e6000806101000a81548173ffffffffffffffffffffffffffffffffffffffff021916908373ffffffffffffffffffffffffffffffffffffffff160217905550612ba06040805190810160405280600981526020017f6574685f6b6f76616e00000000000000000000000000000000000000000000008152506133a1565b60019050612df4565b6000612bc873146500cfd35b22e4a392fe0adc06de1a1368ed4861295d565b1115612c695773146500cfd35b22e4a392fe0adc06de1a1368ed486000806101000a81548173ffffffffffffffffffffffffffffffffffffffff021916908373ffffffffffffffffffffffffffffffffffffffff160217905550612c606040805190810160405280600b81526020017f6574685f72696e6b6562790000000000000000000000000000000000000000008152506133a1565b60019050612df4565b6000612c88736f485c8bf6fc43ea212e93bbf8ce046c7f1cb47561295d565b1115612ceb57736f485c8bf6fc43ea212e93bbf8ce046c7f1cb4756000806101000a81548173ffffffffffffffffffffffffffffffffffffffff021916908373ffffffffffffffffffffffffffffffffffffffff16021790555060019050612df4565b6000612d0a7320e12a1f859b3feae5fb2a0a32c18f5a65555bbf61295d565b1115612d6d577320e12a1f859b3feae5fb2a0a32c18f5a65555bbf6000806101000a81548173ffffffffffffffffffffffffffffffffffffffff021916908373ffffffffffffffffffffffffffffffffffffffff16021790555060019050612df4565b6000612d8c7351efaf4c8b3c9afbd5ab9f4bbc82784ab6ef8faa61295d565b1115612def577351efaf4c8b3c9afbd5ab9f4bbc82784ab6ef8faa6000806101000a81548173ffffffffffffffffffffffffffffffffffffffff021916908373ffffffffffffffffffffffffffffffffffffffff16021790555060019050612df4565b600090505b919050565b600080612e046138fe565b60008060009054906101000a900473ffffffffffffffffffffffffffffffffffffffff1673ffffffffffffffffffffffffffffffffffffffff161480612e7357506000612e716000809054906101000a900473ffffffffffffffffffffffffffffffffffffffff1661295d565b145b15612e8457612e826000612968565b505b6000809054906101000a900473ffffffffffffffffffffffffffffffffffffffff1673ffffffffffffffffffffffffffffffffffffffff166338cc48316000604051602001526040518163ffffffff167c0100000000000000000000000000000000000000000000000000000000028152600401602060405180830381600087803b1515612f1157600080fd5b6102c65a03f11515612f2257600080fd5b5050506040518051905073ffffffffffffffffffffffffffffffffffffffff16600160009054906101000a900473ffffffffffffffffffffffffffffffffffffffff1673ffffffffffffffffffffffffffffffffffffffff1614151561306b576000809054906101000a900473ffffffffffffffffffffffffffffffffffffffff1673ffffffffffffffffffffffffffffffffffffffff166338cc48316000604051602001526040518163ffffffff167c0100000000000000000000000000000000000000000000000000000000028152600401602060405180830381600087803b151561300f57600080fd5b6102c65a03f1151561302057600080fd5b50505060405180519050600160006101000a81548173ffffffffffffffffffffffffffffffffffffffff021916908373ffffffffffffffffffffffffffffffffffffffff1602179055505b600160009054906101000a900473ffffffffffffffffffffffffffffffffffffffff1673ffffffffffffffffffffffffffffffffffffffff16632ef3accc87866000604051602001526040518363ffffffff167c01000000000000000000000000000000000000000000000000000000000281526004018080602001838152602001828103825284818151815260200191508051906020019080838360005b8381101561312557808201518184015260208101905061310a565b50505050905090810190601f1680156131525780820380516001836020036101000a031916815260200191505b509350505050602060405180830381600087803b151561317157600080fd5b6102c65a03f1151561318257600080fd5b505050604051805190509150833a02670de0b6b3a7640000018211156131ae5760006001029250613353565b6131b7856133bb565b9050600160009054906101000a900473ffffffffffffffffffffffffffffffffffffffff1673ffffffffffffffffffffffffffffffffffffffff1663c55c1cb683898985896000604051602001526040518663ffffffff167c0100000000000000000000000000000000000000000000000000000000028152600401808581526020018060200180602001848152602001838103835286818151815260200191508051906020019080838360005b83811015613280578082015181840152602081019050613265565b50505050905090810190601f1680156132ad5780820380516001836020036101000a031916815260200191505b50838103825285818151815260200191508051906020019080838360005b838110156132e65780820151818401526020810190506132cb565b50505050905090810190601f1680156133135780820380516001836020036101000a031916815260200191505b5096505050505050506020604051808303818588803b151561333457600080fd5b6125ee5a03f1151561334557600080fd5b505050506040518051905092505b5050949350505050565b60008060008060405188815287602082015286604082015285606082015260208160808360006001610bb8f192508051915050818193509350505094509492505050565b80600290805190602001906133b792919061397c565b5050565b6133c36138fe565b6000806133ce613954565b60008060006133db6138fe565b60008060008b51995060009850896040518059106133f65750595b90808252806020026020018201604052801561342c57816020015b613419613968565b8152602001906001900390816134115790505b509750600096505b898710156134c5578b8781518110151561344a57fe5b90602001906020020151888881518110151561346257fe5b906020019060200201819052506003601760018a8a81518110151561348357fe5b90602001906020020151510381151561349857fe5b0489898151811015156134a757fe5b90602001906020020151510101890198508680600101975050613434565b6000955060808a019450600160ff1689019850886040518059106134e65750595b9080825280601f01601f191660200182016040525093505b85600160ff1611156135a857847f0100000000000000000000000000000000000000000000000000000000000000028660018110151561353a57fe5b1a7f010000000000000000000000000000000000000000000000000000000000000002848781518110151561356b57fe5b9060200101907effffffffffffffffffffffffffffffffffffffffffffffffffffffffffffff1916908160001a90535085806001019650506134fe565b600096505b8987101561389457605f7f01000000000000000000000000000000000000000000000000000000000000000284878151811015156135e757fe5b9060200101907effffffffffffffffffffffffffffffffffffffffffffffffffffffffffffff1916908160001a9053508580600101965050600092505b878781518110151561363257fe5b906020019060200201515183101561381d57600060178481151561365257fe5b06141561375a57601883898981518110151561366a57fe5b906020019060200201515103101561369c5782888881518110151561368b57fe5b90602001906020020151510361369f565b60175b91506040820191508590505b808603600160ff16111561375957817f0100000000000000000000000000000000000000000000000000000000000000028187036001811015156136eb57fe5b1a7f010000000000000000000000000000000000000000000000000000000000000002848781518110151561371c57fe5b9060200101907effffffffffffffffffffffffffffffffffffffffffffffffffffffffffffff1916908160001a90535085806001019650506136ab565b5b878781518110151561376857fe5b906020019060200201518381518110151561377f57fe5b9060200101517f010000000000000000000000000000000000000000000000000000000000000090047f01000000000000000000000000000000000000000000000000000000000000000284878151811015156137d857fe5b9060200101907effffffffffffffffffffffffffffffffffffffffffffffffffffffffffffff1916908160001a90535085806001019650508280600101935050613624565b60ff7f010000000000000000000000000000000000000000000000000000000000000002848781518110151561384f57fe5b9060200101907effffffffffffffffffffffffffffffffffffffffffffffffffffffffffffff1916908160001a905350858060010196505086806001019750506135ad565b839a5050505050505050505050919050565b8154818355818115116138cd578183600052602060002091820191016138cc91906139fc565b5b505050565b8154818355818115116138f9578183600052602060002091820191016138f891906139fc565b5b505050565b602060405190810160405280600081525090565b6060604051908101604052806003905b61392a613968565b8152602001906001900390816139225790505090565b602060405190810160405280600081525090565b602060405190810160405280600081525090565b602060405190810160405280600081525090565b828054600181600116156101000203166002900490600052602060002090601f016020900481019282601f106139bd57805160ff19168380011785556139eb565b828001600101855582156139eb579182015b828111156139ea5782518255916020019190600101906139cf565b5b5090506139f891906139fc565b5090565b613a1e91905b80821115613a1a576000816000905550600101613a02565b5090565b90565b60008060009054906101000a900473ffffffffffffffffffffffffffffffffffffffff1673ffffffffffffffffffffffffffffffffffffffff161480613a9057506000613a8e6000809054906101000a900473ffffffffffffffffffffffffffffffffffffffff1661295d565b145b15613aa157613a9f6000612968565b505b6000809054906101000a900473ffffffffffffffffffffffffffffffffffffffff1673ffffffffffffffffffffffffffffffffffffffff166338cc48316000604051602001526040518163ffffffff167c0100000000000000000000000000000000000000000000000000000000028152600401602060405180830381600087803b1515613b2e57600080fd5b6102c65a03f11515613b3f57600080fd5b5050506040518051905073ffffffffffffffffffffffffffffffffffffffff16600160009054906101000a900473ffffffffffffffffffffffffffffffffffffffff1673ffffffffffffffffffffffffffffffffffffffff16141515613c88576000809054906101000a900473ffffffffffffffffffffffffffffffffffffffff1673ffffffffffffffffffffffffffffffffffffffff166338cc48316000604051602001526040518163ffffffff167c0100000000000000000000000000000000000000000000000000000000028152600401602060405180830381600087803b1515613c2c57600080fd5b6102c65a03f11515613c3d57600080fd5b50505060405180519050600160006101000a81548173ffffffffffffffffffffffffffffffffffffffff021916908373ffffffffffffffffffffffffffffffffffffffff1602179055505b600160009054906101000a900473ffffffffffffffffffffffffffffffffffffffff1673ffffffffffffffffffffffffffffffffffffffff1663688dcfd7826040518263ffffffff167c010000000000000000000000000000000000000000000000000000000002815260040180827effffffffffffffffffffffffffffffffffffffffffffffffffffffffffffff19167effffffffffffffffffffffffffffffffffffffffffffffffffffffffffffff19168152602001915050600060405180830381600087803b1515613d5c57600080fd5b6102c65a03f11515613d6d57600080fd5b505050505600a165627a7a7230582072c9e3b66a1d96d33120baaa5f5171eb3a612c0d43fa4b79761e4023ad87dc6f0029",
  "source": "pragma solidity ^0.4.11;\n\nimport \"./oraclizeAPI.sol\";\n\n/// @title Contract to bet Ether for a number and win randomly when the number of bets is met.\n/// @author Merunas Grincalaitis\ncontract Casino is usingOraclize {\n   address owner;\n\n   // The minimum bet a user has to make to participate in the game\n   uint public minimumBet = 100 finney; // Equal to 0.1 ether\n\n   // The total amount of Ether bet for this current game\n   uint public totalBet;\n\n   // The total number of bets the users have made\n   uint public numberOfBets;\n\n   // The maximum amount of bets can be made for each game\n   uint public maxAmountOfBets = 10;\n\n   // The max amount of bets that cannot be exceeded to avoid excessive gas consumption\n   // when distributing the prizes and restarting the game\n   uint public constant LIMIT_AMOUNT_BETS = 100;\n\n   // The number that won the last game\n   uint public numberWinner;\n\n   // Array of players\n   address[] public players;\n\n   // Each number has an array of players. Associate each number with a bunch of players\n   mapping(uint => address[]) numberBetPlayers;\n\n   // The number that each player has bet for\n   mapping(address => uint) playerBetsNumber;\n\n   // Modifier to only allow the execution of functions when the bets are completed\n   modifier onEndGame(){\n      if(numberOfBets >= maxAmountOfBets) _;\n   }\n\n   /// @notice Constructor that's used to configure the minimum bet per game and the max amount of bets\n   /// @param _minimumBet The minimum bet that each user has to make in order to participate in the game\n   /// @param _maxAmountOfBets The max amount of bets that are required for each game\n   function Casino(uint _minimumBet, uint _maxAmountOfBets){\n      owner = msg.sender;\n\n      if(_minimumBet > 0) minimumBet = _minimumBet;\n      if(_maxAmountOfBets > 0 && _maxAmountOfBets <= LIMIT_AMOUNT_BETS)\n         maxAmountOfBets = _maxAmountOfBets;\n\n      // Set the proof of oraclize in order to make secure random number generations\n      oraclize_setProof(proofType_Ledger);\n   }\n\n   /// @notice Check if a player exists in the current game\n   /// @param player The address of the player to check\n   /// @return bool Returns true is it exists or false if it doesn't\n   function checkPlayerExists(address player) returns(bool){\n      if(playerBetsNumber[player] > 0)\n         return true;\n      else\n         return false;\n   }\n\n   /// @notice To bet for a number by sending Ether\n   /// @param numberToBet The number that the player wants to bet for. Must be between 1 and 10 both inclusive\n   function bet(uint numberToBet) payable{\n\n      // Check that the max amount of bets hasn't been met yet\n      assert(numberOfBets < maxAmountOfBets);\n\n      // Check that the player doesn't exists\n      assert(checkPlayerExists(msg.sender) == false);\n\n      // Check that the number to bet is within the range\n      assert(numberToBet >= 1 && numberToBet <= 10);\n\n      // Check that the amount paid is bigger or equal the minimum bet\n      assert(msg.value >= minimumBet);\n\n      // Set the number bet for that player\n      playerBetsNumber[msg.sender] = numberToBet;\n\n      // The player msg.sender has bet for that number\n      numberBetPlayers[numberToBet].push(msg.sender);\n\n      numberOfBets += 1;\n      totalBet += msg.value;\n\n      if(numberOfBets >= maxAmountOfBets) generateNumberWinner();\n   }\n\n   /// @notice Generates a random number between 1 and 10 both inclusive.\n   /// Must be payable because oraclize needs gas to generate a random number.\n   /// Can only be executed when the game ends.\n   function generateNumberWinner() payable onEndGame {\n      uint numberRandomBytes = 7;\n      uint delay = 0;\n      uint callbackGas = 200000;\n\n      bytes32 queryId = oraclize_newRandomDSQuery(delay, numberRandomBytes, callbackGas);\n   }\n\n   /// @notice Callback function that gets called by oraclize when the random number is generated\n   /// @param _queryId The query id that was generated to proofVerify\n   /// @param _result String that contains the number generated\n   /// @param _proof A string with a proof code to verify the authenticity of the number generation\n   function __callback(\n      bytes32 _queryId,\n      string _result,\n      bytes _proof\n   ) oraclize_randomDS_proofVerify(_queryId, _result, _proof) onEndGame {\n\n      // Checks that the sender of this callback was in fact oraclize\n      assert(msg.sender == oraclize_cbAddress());\n\n      numberWinner = (uint(sha3(_result))%10+1);\n      distributePrizes();\n   }\n\n   /// @notice Sends the corresponding Ether to each winner then deletes all the\n   /// players for the next game and resets the `totalBet` and `numberOfBets`\n   function distributePrizes() onEndGame {\n      uint winnerEtherAmount = totalBet / numberBetPlayers[numberWinner].length; // How much each winner gets\n\n      // Loop through all the winners to send the corresponding prize for each one\n      for(uint i = 0; i < numberBetPlayers[numberWinner].length; i++){\n         numberBetPlayers[numberWinner][i].transfer(winnerEtherAmount);\n      }\n\n      // Delete all the players for each number\n      for(uint j = 1; j <= 10; j++){\n         numberBetPlayers[j].length = 0;\n      }\n\n      totalBet = 0;\n      numberOfBets = 0;\n   }\n\n\n}\n",
  "sourcePath": "/Users/temitopealabi/Documents/dapps/casino-ethereum/contracts/Casino.sol",
  "compiler": {
    "name": "solc",
    "version": "0.4.18+commit.9cf6e910.Emscripten.clang"
  },
  "schemaVersion": "1.0.1",
  "updatedAt": "2017-12-31T01:17:34.491Z"
}